:100000000C942A000C9434000C9434000C943400AA
:100010000C9434000C9434000C9434000C94340090
:100020000C9434000C9434000C9434000C94340080
:100030000C9434000C9434000C9434000C94340070
:100040000C9434000C9434000C9434000C94340060
:100050000C94340011241FBECFE5D8E0DEBFCDBF25
:100060000E94DB010C94E1010C940000CF93C82F97
:1000700040E062E081E00E946A0140E061E081E0EE
:100080000E946A0140E063E081E00E946A018C2FD7
:10009000807F8BBB88B34FEF63E00E946A0189EFDA
:1000A00090E00197F1F700C0000088B340E063E002
:1000B0000E946A01C295C07FCBBB88B34FEF63E05B
:1000C0000E946A0189EF90E00197F1F700C00000FB
:1000D00088B340E063E00E946A0181EE94E00197FA
:1000E000F1F700C00000CF91089541E061E081E0A8
:1000F0000E94F90041E062E081E00E94F90041E0E5
:1001000063E081E00E94F90041E064E080E00E9449
:10011000F90041E065E080E00E94F90041E066E01E
:1001200080E00E94F90041E067E080E00E94F90071
:1001300087EA91E60197F1F700C0000083E30E948F
:10014000360082E30E94360088E20E9436008CE08E
:100150000E94360081E00E94360086E00E94360050
:1001600082E00E94360081EE94E00197F1F700C032
:1001700000000895CF93C82F40E062E081E00E9424
:100180006A0141E061E081E00E946A0140E063E0D1
:1001900081E00E946A018C2F807F8BBB4FEF63E070
:1001A00081E00E946A0189EF90E00197F1F700C0B9
:1001B000000040E063E081E00E946A01C295C07FD8
:1001C000CBBB4FEF63E081E00E946A0189EF90E0D2
:1001D0000197F1F700C0000040E063E081E00E9479
:1001E0006A0181EE94E00197F1F700C00000CF9121
:1001F00008954423B9F1413009F06BC0813089F092
:1002000028F08230C9F0833011F108952AB381E0DB
:1002100090E002C0880F991F6A95E2F7822B8ABB93
:10022000089527B381E090E002C0880F991F6A9576
:10023000E2F7822B87BB089524B381E090E002C0EF
:10024000880F991F6A95E2F7822B84BB089521B32A
:1002500081E090E002C0880F991F6A95E2F7822B37
:1002600081BB0895813091F028F08230D9F083303D
:1002700029F108952AB381E090E002C0880F991F08
:100280006A95E2F7809582238ABB089527B381E0BF
:1002900090E002C0880F991F6A95E2F7809582234B
:1002A00087BB089524B381E090E002C0880F991FB6
:1002B0006A95E2F78095822384BB089521B381E09B
:1002C00090E002C0880F991F6A95E2F7809582231B
:1002D00081BB08954423B9F1413009F06BC08130EE
:1002E00089F028F08230C9F0833011F108952BB3E2
:1002F00081E090E002C0880F991F6A95E2F7822B97
:100300008BBB089528B381E090E002C0880F991F4D
:100310006A95E2F7822B88BB089525B381E090E0CF
:1003200002C0880F991F6A95E2F7822B85BB08955A
:1003300022B381E090E002C0880F991F6A95E2F72E
:10034000822B82BB0895813091F028F08230D9F061
:10035000833029F108952BB381E090E002C0880F2B
:10036000991F6A95E2F7809582238BBB089528B385
:1003700081E090E002C0880F991F6A95E2F78095AE
:10038000822388BB089525B381E090E002C0880FE6
:10039000991F6A95E2F78095822385BB089522B361
:1003A00081E090E002C0880F991F6A95E2F780957E
:1003B000822382BB08950E94750081E40E94BA00E6
:0603C000FFCFF894FFCF0F
:00000001FF
