S00B00004C43442E7372656346
S11300000C942A000C9434000C9434000C943400A6
S11300100C9434000C9434000C9434000C9434008C
S11300200C9434000C9434000C9434000C9434007C
S11300300C9434000C9434000C9434000C9434006C
S11300400C9434000C9434000C9434000C9434005C
S11300500C94340011241FBECFE5D8E0DEBFCDBF21
S11300600E94C3010C94C9010C940000CF93C82FC3
S113007088B340E062E00E945E0188B340E061E042
S11300800E945E0188B340E063E00E945E018C2F11
S1130090807F8BBB88B34FEF63E00E945E0189EFE2
S11300A090E00197F1F700C0000088B340E063E0FE
S11300B00E945E01C295C07FCBBB88B34FEF63E063
S11300C00E945E0189EF90E00197F1F700C0000003
S11300D088B340E063E00E945E0181EE94E0019702
S11300E0F1F700C00000CF91089588B341E061E0CA
S11300F00E94F90088B341E062E00E94F90088B3ED
S113010041E063E00E94F9008BB341E064E00E94A7
S1130110F9008BB341E065E00E94F9008BB341E044
S113012066E00E94F9008BB341E067E00E94F900A9
S113013087EA91E60197F1F700C0000083E30E948B
S1130140360082E30E94360088E20E9436008CE08A
S11301500E94360081E00E94360086E00E9436004C
S113016082E00E94360081EE94E00197F1F700C02E
S113017000000895CF93C82F88B340E062E00E9446
S11301805E0188B341E061E00E945E0188B340E013
S113019063E00E945E018C2F807F8BBB88B34FEF9E
S11301A063E00E945E0189EF90E00197F1F700C0DF
S11301B0000088B340E063E00E945E01C295C07F06
S11301C0CBBB88B34FEF63E00E945E0189EF90E000
S11301D00197F1F700C0000088B340E063E00E949B
S11301E05E0181EE94E00197F1F700C00000CF9129
S11301F00895442379F1413009F05FC0813079F0EA
S113020028F08230A9F08330E1F008952AB381E028
S113021090E001C0880F6A95EAF7822B2CC027B3BF
S113022081E090E001C0880F6A95EAF7822B2EC026
S113023024B381E090E001C0880F6A95EAF7822B2D
S113024030C021B381E090E001C0880F6A95EAF7DD
S1130250822B32C0813089F028F08230C9F083309B
S113026011F108952AB381E090E001C0880F6A95E6
S1130270EAF7809582238ABB089527B381E090E052
S113028001C0880F6A95EAF78095822387BB089599
S113029024B381E090E001C0880F6A95EAF7809565
S11302A0822384BB089521B381E090E001C0880FCC
S11302B06A95EAF78095822381BB0895442379F1F6
S11302C0413009F05FC0813079F028F08230A9F024
S11302D08330E1F008952BB381E090E001C0880FF2
S11302E06A95EAF7822B2CC028B381E090E001C024
S11302F0880F6A95EAF7822B2EC025B381E090E03F
S113030001C0880F6A95EAF7822B30C022B381E0DE
S113031090E001C0880F6A95EAF7822B32C08130E1
S113032089F028F08230C9F0833011F108952BB39D
S113033081E090E001C0880F6A95EAF780958223F6
S11303408BBB089528B381E090E001C0880F6A95C3
S1130350EAF78095822388BB089525B381E090E075
S113036001C0880F6A95EAF78095822385BB0895BA
S113037022B381E090E001C0880F6A95EAF7809586
S1130380822382BB08950E94750081E40E94BA0012
S1090390FFCFF894FFCF3B
S9030000FC
